{
  "contractName": "Transaction",
  "abi": [
    {
      "constant": true,
      "inputs": [
        {
          "name": "",
          "type": "address"
        }
      ],
      "name": "balances",
      "outputs": [
        {
          "name": "",
          "type": "uint256"
        }
      ],
      "payable": false,
      "stateMutability": "view",
      "type": "function"
    },
    {
      "constant": true,
      "inputs": [],
      "name": "price",
      "outputs": [
        {
          "name": "",
          "type": "uint256"
        }
      ],
      "payable": false,
      "stateMutability": "view",
      "type": "function"
    },
    {
      "anonymous": false,
      "inputs": [
        {
          "indexed": false,
          "name": "sender",
          "type": "address"
        },
        {
          "indexed": false,
          "name": "to",
          "type": "address"
        },
        {
          "indexed": false,
          "name": "amount",
          "type": "uint256"
        },
        {
          "indexed": false,
          "name": "productId",
          "type": "uint256"
        }
      ],
      "name": "LogTransfer",
      "type": "event"
    },
    {
      "constant": false,
      "inputs": [
        {
          "name": "amount",
          "type": "uint256"
        }
      ],
      "name": "deposit",
      "outputs": [],
      "payable": true,
      "stateMutability": "payable",
      "type": "function"
    },
    {
      "constant": false,
      "inputs": [
        {
          "name": "amount",
          "type": "uint256"
        }
      ],
      "name": "withdraw",
      "outputs": [],
      "payable": false,
      "stateMutability": "nonpayable",
      "type": "function"
    },
    {
      "constant": false,
      "inputs": [
        {
          "name": "to",
          "type": "address"
        },
        {
          "name": "amount",
          "type": "uint256"
        },
        {
          "name": "productId",
          "type": "uint256"
        }
      ],
      "name": "transfer",
      "outputs": [],
      "payable": false,
      "stateMutability": "nonpayable",
      "type": "function"
    }
  ],
  "bytecode": "0x6060604052341561000f57600080fd5b61048c8061001e6000396000f30060606040526004361061006d576000357c0100000000000000000000000000000000000000000000000000000000900463ffffffff168063095bcdb61461007257806327e235e3146100bd5780632e1a7d4d1461010a578063a035b1fe1461012d578063b6b55f2514610156575b600080fd5b341561007d57600080fd5b6100bb600480803573ffffffffffffffffffffffffffffffffffffffff1690602001909190803590602001909190803590602001909190505061016e565b005b34156100c857600080fd5b6100f4600480803573ffffffffffffffffffffffffffffffffffffffff169060200190919050506102fb565b6040518082815260200191505060405180910390f35b341561011557600080fd5b61012b6004808035906020019091905050610313565b005b341561013857600080fd5b6101406103ed565b6040518082815260200191505060405180910390f35b61016c60048080359060200190919050506103f9565b005b816000803373ffffffffffffffffffffffffffffffffffffffff1673ffffffffffffffffffffffffffffffffffffffff1681526020019081526020016000205410156101b957600080fd5b816000803373ffffffffffffffffffffffffffffffffffffffff1673ffffffffffffffffffffffffffffffffffffffff168152602001908152602001600020600082825403925050819055508273ffffffffffffffffffffffffffffffffffffffff166108fc670de0b6b3a764000084029081150290604051600060405180830381858888f19350505050151561024f57600080fd5b7f328ac8f1c0ed76ad17d4054f1664b45a0d48505ae685d3ee17016c4cb5fb597d33848484604051808573ffffffffffffffffffffffffffffffffffffffff1673ffffffffffffffffffffffffffffffffffffffff1681526020018473ffffffffffffffffffffffffffffffffffffffff1673ffffffffffffffffffffffffffffffffffffffff16815260200183815260200182815260200194505050505060405180910390a1505050565b60006020528060005260406000206000915090505481565b806000803373ffffffffffffffffffffffffffffffffffffffff1673ffffffffffffffffffffffffffffffffffffffff16815260200190815260200160002054101561035e57600080fd5b806000803373ffffffffffffffffffffffffffffffffffffffff1673ffffffffffffffffffffffffffffffffffffffff168152602001908152602001600020600082825403925050819055503373ffffffffffffffffffffffffffffffffffffffff166108fc829081150290604051600060405180830381858888f1935050505015156103ea57600080fd5b50565b670de0b6b3a764000081565b670de0b6b3a764000081023414151561041157600080fd5b806000803373ffffffffffffffffffffffffffffffffffffffff1673ffffffffffffffffffffffffffffffffffffffff16815260200190815260200160002060008282540192505081905550505600a165627a7a723058205c74ab82eefaff79edb9317937f85d1939113fd16b006b578c3844982ddf8e390029",
  "source": "pragma solidity ^0.4.11;\n\ncontract Transaction {\n\n   mapping (address => uint256) public balances;\n   uint public constant price = 1 ether;\n   event LogTransfer(address sender, address to, uint amount, uint productId);\n    \n    function deposit(uint amount) payable  {\n        if (msg.value != (amount * price)) {\n            throw;\n        }\n        balances[msg.sender] += amount;\n    }\n\n    function withdraw(uint amount) {\n        if (balances[msg.sender] < amount) {\n            throw;\n        }\n        balances[msg.sender] -= amount;\n        msg.sender.transfer(amount);\n    }\n\n    function transfer(address to, uint amount, uint productId) {\n        if (balances[msg.sender] < amount) {\n            throw;\n        }\n        balances[msg.sender] -= amount;\n        to.transfer(amount * price);\n        LogTransfer(msg.sender, to, amount, productId);\n    }\n    \n}",
  "sourcePath": "/Users/Aaron/Desktop/school/semester4/dshoppingcart/contracts/transaction.sol",
  "compiler": {
    "name": "solc",
    "version": "0.4.19+commit.c4cbbb05.Emscripten.clang"
  },
  "schemaVersion": "2.0.0",
  "updatedAt": "2018-04-15T04:19:32.517Z"
}